:040000000C942E002E
:14005C00CFEFD4E0CDBFDEBFC051D0400AEA08830024E0E071
:14007000F1E011E0E630F10711F00192FBCF0083ECE5F0E02A
:14008400A0E0B1E010E000E00BBFEC35F10721F0C89531966F
:140098000D92F9CF0E94F100FFCF0E94FE000E94A1012897E9
:1400AC00CC88AA2481E0888380E089838A838B833CC0288087
:1400C00039804A805B80088919892A893B895A924A923A9290
:1400D4002A920E9403010C831D832E833F834AE050E060E07A
:1400E80070E00C811D812E813F817A936A935A934A930E94A4
:1400FC00050180E091E0EA2DFF27E80FF91F008328803980E9
:140110004A805B804AE050E060E070E05A924A923A922A92FC
:140124008A019B010E946D01088319832A833B83A3942C2C6F
:14013800332427FC30944A2C5524421453040CF4BACF289692
:14014C000E94AA01249608954A9307C0442701C043954634D9
:14016000E8F3015010402224332420163106A4F349910895F7
:140174004A935A9313C04427552702C04F5F5F4F82EA9DECE0
:14018800A0E0B0E01A0144245524281639064A065B0694F3A2
:14019C0001501040222433242016310644F35991499108950C
:1401B0004A935A934427552702C04F5F5F4F40175107D8F3F2
:1401C400599149910895222707C07198000F609B01C0016081
:1401D800719A23952830B8F308958FEF81B96D9A699A6898EE
:1401EC0005C0759A7598759AEADF02B9FACF08953A932A939B
:140200001A930A930895E89401C0689430D0CC2409C0E89495
:1402140001C068942AD037FD0E94B301B7FD52D07724882478
:140228009924AA24BB2442D0C1F045D0B1F0E8E2000F111FD6
:14023C00221F331F771C881C991CAA1CBB1C88169906AA06A5
:14025000BB0628F0881A990AAA0ABB0A0395EA9559F726F482
:14026400082D192D2A2D3B2D13C07A928A929A92AA92BA929D
:14027800CA92EA938A939A93AA93BA938B859C85AD85BE851F
:14028C00C32E0EF0CB260895C7FC0E94B301B991A99199911A
:1402A0008991E991C990B990A9909990899079902496089539
:1402B400E02FE12BE22BE32B0895E82FE92BEA2BEB2B089570
:1402C80080959095A095B0958F5F9F4FAF4FBF4F08950E9447
:1402DC00BC017A920E94D50159F177240E94DB0119F48C01D0
:1402F0009D0124C00A921A92089FB02CA12C289F902C812CB0
:14030400189FA00C911C871C099FA00C911C871C199F900C3A
:14031800811C0A9F900C811C389F800C299F800C1A9F800C56
:14032C000B9F800C199009900B2D1A2D292D382D79900C9462
:14034000CA017A936A935A934A93DA92CA92BA92AA9208951D
:14035400A990B990C990D99049915991699179910895009557
:140368001095209530950F5F1F4F2F4F3F4F08958A929A9295
:14037C00AA92BA92EA938A939A93AA93BA9389859A85AB8537
:14039000BC850895B991A99199918991E991B990A99099908E
:1403A400899024960895EE27E02BE12BE22BE32B0895EE27DC
:0A03B800E82BE92BEA2BEB2B08954C
:00000001FF
