:100000000C9438000C9442000C9442000C94420072
:100010000C9442000C9442000C9442000C94420058
:100020000C9442000C9442000C9442000C94420048
:100030000C9442000C9442000C9442000C94420038
:100040000C9442000C9442000C9442000C94420028
:100050000C9442000C9442000C9442000C94420018
:100060000C9442000C9442000C9442000C94420008
:1000700011241FBECFEFD4E0DEBFCDBF0E945500DC
:100080000C9469000C94000090E0C09887FF02C0B7
:10009000C19A01C0C198C09A9F5F983011F0880F33
:1000A000F4CF0895B99AB89A08951F93CF93DF9328
:1000B000B99AB89A10E0C8EBD0E0812F0E944400B2
:1000C0001F5F88E893E1FE013197F1F70197D9F7B7
:0600D000F4CFF894FFCF0D
:00000001FF
