:100000000C942E000C944B000C944B000C944B0061
:100010000C944B000C944B000C944B000C944B0034
:100020000C944B000C944B000C944B000C944B0024
:100030000C944B000C944B000C944B000C944B0014
:100040000C944B000C944B000C944B000C944B0004
:100050000C944B000C944B000C944B0011241FBECD
:10006000CFEFD4E0DEBFCDBF11E0A0E0B1E0E0E82B
:10007000F5E002C005900D92A632B107D9F711E064
:10008000A6E2B1E001C01D92A636B107E1F70E94D9
:100090001B020C94BE020C9400008FEF82B98FE01B
:1000A00081B920E030E0F901E35EFE4F908192B922
:1000B00080B1891799F040B1407FE1E2F1E090E032
:1000C0008081481739F4220F331F220F331F892FE5
:1000D000820F08959F5F3196943091F72F5F3F4FC5
:1000E0002430310501F78FEF08958EBD0DB407FE62
:1000F000FDCF0895982F88EF8EBD0DB407FEFDCF7C
:10010000892F807F8EBD0DB407FEFDCF9295907F25
:100110009EBD0DB407FEFDCF88EB8A95F1F70895DB
:10012000982F8AEF8EBD0DB407FEFDCF892F807FFB
:100130008EBD0DB407FEFDCF9295907F9EBD0DB490
:1001400007FEFDCF88EB8A95F1F70895AC0188EFA3
:100150008EBD0DB407FEFDCF1EBC0DB407FEFDCF56
:1001600080E28EBD0DB407FEFDCF88EB8A95F1F7D6
:1001700020E030E06AEF98EBFA01E20FF31FE08134
:100180006EBD0DB407FEFDCF8E2F807F8EBD0DB4EA
:1001900007FEFDCFE295E07FEEBD0DB407FEFDCF7B
:1001A000892F8A95F1F72F5F3F4F2031310521F7D5
:1001B000DA01FA0160E23AEF98EB20A13EBD0DB4FE
:1001C00007FEFDCF822F807F8EBD0DB407FEFDCFD1
:1001D0002295207F2EBD0DB407FEFDCF892F8A9575
:1001E000F1F76F5F3196603341F730E17AEF98EBCA
:1001F00050962C9150977EBD0DB407FEFDCF822FF7
:10020000807F8EBD0DB407FEFDCF2295207F2EBDD1
:100210000DB407FEFDCF892F8A95F1F73F5F119648
:10022000303231F7FA01F0963AEF28EB90813EBD7B
:100230000DB407FEFDCF892F807F8EBD0DB407FE64
:10024000FDCF9295907F9EBD0DB407FEFDCF822F0E
:100250008A95F1F76F5F31966F3341F70895CF9329
:10026000DF93FB01EC0120E343C0433021F1443034
:1002700028F44130B1F14230C1F528C0443069F072
:10028000453099F5CF0160E177E20E94AA02605DF6
:100290006883CF0160E177E20AC0CF0168EE73E0C6
:1002A0000E94AA02605D6883CF0168EE73E00E943D
:1002B000AA02FC011BC0CF0164E670E00E94AA0202
:1002C000605D6883CF0164E670E0F1CFCF016AE042
:1002D00070E00E94AA02605D6883CF016AE070E06E
:1002E000E6CFE05DE883E05301C0288341502196CA
:1002F000442309F0BACFDF91CF91089584B18F6084
:1003000084B980E58CBD81E08DBD88EF8EBD0DB4D4
:1003100007FEFDCF1EBC0DB407FEFDCF80EC8EBDE9
:100320000DB407FEFDCF88EB8A95F1F788EF8EBDFF
:100330000DB407FEFDCF1EBC0DB407FEFDCF80E15E
:100340008EBD0DB407FEFDCF88EB8A95F1F786E6EA
:100350009EE00197F1F786E291E060E270E040E410
:1003600050E00E94A3020895AF92BF92CF92DF9215
:10037000EF92FF920F93DF93CF93CDB7DEB70D854A
:10038000AE84BF84E888F9880295007F8C85080FC9
:10039000DE01529641C0013408F043C08C3551F45F
:1003A0000894E11CF11C9501200F311DF70180819B
:1003B000F9012DC0853241F50894E11CF11CF701CB
:1003C00080818436C1F40894E11CF11C92E0C92EAE
:1003D000D12CCA0EDB1E6D917C91F70140814053F8
:1003E000C501800F911D0E942F010153F7018081EB
:1003F000080FD6010DC0833659F4F501E00FF11D49
:100400008C918083129604C0F501E00FF11D80836A
:100410000894E11CF11C0F5FF7018081882309F02B
:10042000BACFCF91DF910F91FF90EF90DF90CF90F7
:10043000BF90AF900895AF92BF92CF92DF92EF92AC
:10044000FF920F931F93CF93DF930E947E0100D002
:1004500000D000D0EDB7FEB73196ADB7BEB711965C
:100460001C92118206E211E01383028380E091E086
:10047000958384830E94B401EDB7FEB73196ADB782
:10048000BEB711961C9281E08183138302838FE0B3
:1004900091E0958384830E94B401FF248DB79EB7B9
:1004A00006960FB6F8949EBF0FBE8DBFE02E012FAB
:1004B00036E0A32EBB24B39429E1C22E21E0D22E34
:1004C000C6E1D1E001C0F12E0E944D00182F8F151A
:1004D000D1F38F3FA9F400D000D000D0EDB7FEB724
:1004E0003196ADB7BEB71196AC92B182E28203836A
:1004F000D583C4830E94B4018DB79EB7069619C0F8
:10050000ADB7BEB718970FB6F894BEBF0FBEADBF5C
:10051000EDB7FEB731961196AC92B182E2820383B9
:10052000D582C482868317820E94B4018DB79EB79C
:1005300008960FB6F8949EBF0FBE8DBF86E291E07D
:100540000E94A600C0CFDC0101C06D934150504015
:10055000E0F70895AA1BBB1B51E107C0AA1FBB1FF0
:10056000A617B70710F0A61BB70B881F991F5A953F
:10057000A9F780959095BC01CD010895F894FFCF1F
:10058000BED8D5F3CABDBCFCC5CCCAD4D1E900BC29
:10059000FCD6B5A3BA0020200025643200FEFDFB86
:0605A000F770B0D0E0008E
:00000001FF
