:100000000C942E000C9454000C944B000C944B0058
:100010000C944B000C944B000C944B000C944B0034
:100020000C944B000C944B000C944B000C944B0024
:100030000C944B000C944B000C944B000C944B0014
:100040000C944B000C944B000C944B000C944B0004
:100050000C944B000C944B000C944B0011241FBECD
:10006000CFEFD4E0DEBFCDBF11E0A0E0B1E0EAE623
:10007000F2E002C005900D92A637B107D9F711E062
:10008000A6E7B1E001C01D92A438B107E1F70E94D4
:1000900023010C9433010C94000082E080936900EA
:1000A00081E08DBB8CBB08951F920F920FB60F920B
:1000B00011248F93EF93FF93809182018F5F809340
:1000C000820180918201813029F4489B54C01092B2
:1000D000820151C0809182018A30B8F480918201FE
:1000E000882399F080918001869580938001489BB8
:1000F00006C0809180018068809380010CC080914F
:1001000080018F778093800136C0809182018A3090
:1001100041F4489B30C0809181018F5F80938101C1
:100120002AC0809182018B3011F58091810180FF7E
:1001300022C0E0917601F0E080918001E958FE4F05
:100140008083809176018F5F809376018091760124
:10015000883011F41092760180917F018F5F809337
:100160007F0180917F01883011F410927F011092FD
:10017000820110928101FF91EF918F910F900FBE3C
:100180000F901F90189580917F018823E1F3E091F3
:100190008301F0E0E958FE4FE081809183018F5F99
:1001A0008093830180918301883011F41092830140
:1001B000F89480917F01815080937F0178948E2FF5
:1001C0000895109282011092800110928101109284
:1001D00076011092830110927F015198599A50989C
:1001E000589A089580917F018823E1F3E09183017B
:1001F000F0E0E958FE4F9081809183018F5F8093FA
:10020000830180918301883011F410928301F89466
:1002100080917F01815080937F017894E0E0F1E04C
:10022000A0E0B0E08081891739F4AA0FBB1FA0506D
:10023000BF4F11968C91089511963296AC33B1054B
:1002400089F780E008958FEF81B912B882E080933A
:10025000690081E08DBB8CBB0E94E10078940E9414
:0A026000F20082B9FCCFF894FFCF42
:10026A001C6132622163236424652B663467336818
:10027A0043693B6A426B4B6C3A6D316E446F4D7009
:10028A0015712D721B732C743C752A761D77227892
:10029A0035791A7A453016311E32263325342E35F1
:1002AA0036363D373E3846390E604E2D553D5D5C3B
:1002BA002920545B5B5D4C3B5227412C492E4A2F27
:1002CA00712E7030693172327A336B347335743609
:0602DA006C3775387D3918
:00000001FF
