:100000000C9446000C945D000C945D000C945D0013
:100010000C945D000C945D000C945D000C945D00EC
:100020000C945D000C945D000C945D000C945D00DC
:100030000C945D000C945D000C945D000C945D00CC
:100040000C945D000C945D000C945D000C945D00BC
:100050000C945D000C945D000C945D000C945D00AC
:100060000C945D000C945D000C945D000C945D009C
:100070000C945D000C945D000C945D000C945D008C
:100080000C945D000C945D000C945D0011241FBE67
:10009000CFEFD0E1DEBFCDBF11E0A0E0B1E0ECE6F4
:1000A000F1E000E00BBF02C007900D92A030B10755
:1000B000D9F70E949E000C94B4000C9400008FEFBE
:1000C00087BB85E588BB88EB9BE028EB30E0F90136
:1000D0003197F1F70197D9F788B3809588BB88EB02
:1000E0009BE028EB30E0F9013197F1F70197D9F760
:1000F00088B3809588BB88EB9BE028EB30E0F90162
:100100003197F1F70197D9F788B3809588BB88EBD1
:100110009BE028EB30E0F9013197F1F70197D9F72F
:1001200088B3809588BB88EB9BE028EB30E0F90131
:100130003197F1F70197D9F718BA08950E945F0037
:100140002DE088E190E00FB6F894A89581BD0FBE30
:1001500021BD28EB30E0A8958CEA9DE0F9013197AC
:0C016000F1F70197D9F7F7CFF894FFCF23
:00000001FF
