:100000000C9438000C9442000C9442000C94420072
:100010000C9442000C9442000C9442000C94420058
:100020000C9442000C9442000C9442000C94420048
:100030000C9442000C9442000C9442000C94420038
:100040000C9442000C9442000C9442000C94420028
:100050000C9442000C9442000C9442000C94420018
:100060000C9442000C9442000C9442000C94420008
:1000700011241FBECFEFD4E0DEBFCDBF0E94AC0085
:100080000C94BD000C940000BA9AC29889E993E0E0
:100090000197F1F7C29A86E58A95F1F7BA98B29975
:1000A000FECF01C0BA9AB29BFDCF089580E020E058
:1000B00037E043E9C29ABA9AC2988695932F9A95E7
:1000C000F1F7BA98C29A932F9A95F1F7B29980688E
:1000D000942F9A95F1F72F5F283061F70895BA9A17
:1000E00020E04FE93CE080FF07C0C298932F9A952B
:1000F000F1F7C29A942F06C0C298942F9A95F1F7FF
:10010000C29A932F9A95F1F72F5F283011F08695B8
:10011000EACF08950E9444008CEC0E946F0084E4B2
:100120000E946F0008951F930E948A000E9444005D
:100130008CEC0E946F008EEB0E946F000E945600B4
:10014000182F0E9456008295807F12951F70182BE1
:10015000812F8F771F910895CF93DF938FEF8ABB05
:10016000C8EBD0E00E9493008BBB80E197E2FE01D8
:0E0170003197F1F70197D9F7F5CFF894FFCF4B
:00000001FF
