:040000000C944D000F
:14007000CEC2B6C83A202020A1E600D2BABEA7CFD4CABECE63
:14008400C2B6C800445331384232302D4C434431323836347F
:010098000067
:14009A00CFEFD4E0CDBFDEBFC051D0400AEA08830024E9E228
:1400AE00F1E011E0EF32F10711F00192FBCF0083E0E7F0E0EB
:1400C200A0E0B1E010E000E00BBFE939F10721F0C895319630
:1400D6000D92F9CF0E942903FFCF0E9459030E943704289779
:1400EA00CC88AA2481E0888380E089838A838B833CC0288049
:1400FE0039804A805B80088919892A893B895A924A923A9252
:140112002A920E945E030C831D832E833F834AE050E060E0DE
:1401260070E00C811D812E813F817A936A935A934A930E9465
:14013A00600389E291E0EA2DFF27E80FF91F00832880398042
:14014E004A805B804AE050E060E070E05A924A923A922A92BE
:140162008A019B010E94C803088319832A833B83A3942C2CD4
:14017600332427FC30944A2C5524421453040CF4BACF289654
:14018A000E944004249608954A9307C0442701C04395463402
:14019E00E8F3015010402224332420163106A4F349910895B9
:1401B2004A935A9313C04427552702C04F5F5F4F82EA9DECA2
:1401C600A0E0B0E01A0144245524281639064A065B0694F364
:1401DA0001501040222433242016310644F3599149910895CE
:1401EE004A935A934427552702C04F5F5F4F40175107D8F3B4
:140202005991499108958FEF87BB80E58DB981E08EB9789468
:1402160008950FB9779BFECF0895AA92CA92A22EC02E08EFA6
:14022A00F6DF0C2DF4DF0A2DF2DFC990A9900895AA92CA9210
:14023E00A22EC02E0AEFE9DF0C2DE7DF0A2DE5DFC990A990A1
:1402520008950E941B04622FA02EBB24C5018130E0E09E0720
:1402660069F08230E0E09E0761F08330E0E09E0759F08430AE
:14027A00E0E09E0751F00BC0462F415808C0462F415705C057
:14028E00462F495702C0462F4956242F2F702F702295042FF6
:1402A200007FBDDF0C9422040E942904C22EA02E4E812C2DB2
:1402B6000A2DCDDF04E110E069DF242F2F702F702295042FB9
:1402CA00007FB6DF0C9430040E942904C22EA02E21974B8523
:1402DE0048830F81188529853A85FBDE2C2D0A2DB2DF08E2C3
:1402F20010E04EDF41501EC089E291E0E42FFF27E7FDF095EE
:14030600E80FF91F80819927C0969C012F703070220F331F5E
:14031A00220F331F220F331F220F331F8C01007F107086DF55
:14032E0008E210E02FDF4A95403004F721960C9430040E945C
:140342001004E22EC02E2197AF848FE392E4AFE0B0E02B84F4
:140356003C844D845E8482159305A405B50510F467E04CC037
:14036A008FE996E8A1E0B0E02B843C844D845E848215930527
:14037E00A405B50510F466E03DC08FE097E2A0E0B0E02B841A
:140392003C844D845E8482159305A405B50510F465E02EC01B
:1403A60087EE93E0A0E0B0E02B843C844D845E8482159305FA
:1403BA00A405B50510F464E01FC083E690E0A0E0B0E02B840D
:1403CE003C844D845E8482159305A405B50510F463E010C0FF
:1403E20089E090E0A0E0B0E02B843C844D845E8482159305CD
:1403F600A405B50510F462E001C061E068830B851C852D857A
:14040A003E8569DE2E2D0C2D20DF08E210E0BCDE262E332422
:14041E0027FC30944A2C5524241435046CF4442D461B4150C0
:1404320007C0222700E200DF08E210E0A9DE4A954030BCF782
:14044600462F41501EC089E291E0E42FFF27E7FDF095E80F49
:14045A00F91F80819927C0969C012F703070220F331F220FCF
:14046E00331F220F331F220F331F8C01007F1070DDDE08E2F1
:1404820010E086DE4A95403004F721960C9405040E94290499
:14049600C22EA02E4E815F812C2D0A2DD8DE04E110E074DE78
:1404AA000FC0FA0120803324222D2F702F702295022D007F8B
:1404BE00BDDE4F5F5F4F04E110E064DEFA012080222069F7DF
:1404D2000C9430040E941204E22EC02E48855985AA842E2D58
:1404E6000C2DB5DE04E110E051DE0FC0FA0120803324222D22
:1404FA002F702F702295022D007F9ADE4F5F5F4F0A2D112708
:14050E0051DEFA012080222069F70C94FC0320E100277FDE49
:1405220008EC10E035CE6FDE01E010E041DE20E300E375DE68
:1405360020EC002772DE20E100276FDE20E600276CDE01E061
:14054A0010E032CEBA9AC29804EF11E04BDEC29A0CE310E0B7
:14055E0047DEBA980895B299FECFB29BFECF06E210E03EDE4F
:14057200BA9A08954A936A934427662712C0BA9A4695C29857
:1405860001E010E031DEC29A02E010E02DDEBA98B29B01C0E8
:14059A00406806E710E026DE6395683060F3042F69914991DA
:1405AE000895AA924A93A02EBA9A442715C0A0FE09C0C29860
:1405C2000EE010E013DEC29A0CE610E00FDE08C0C2980CE617
:1405D60010E00ADEC29A0EE010E006DEA6944395483048F356
:1405EA004991A9900895AEDFB8DF08EC10E0CCDD0CECD9DFEC
:1405FE0004E4D7CF4A936A93F4DFA2DFACDF08EC10E0C0DD21
:140612000CECCDDF0EEBCBDFADDF602FABDF402F842F8F70C7
:140626008295482F862F82958F70682F482B042F6991499156
:14063A00089522242BBA8FEF8ABB88BB87BB85BB84BB82BBE0
:14064E0081BB08952597AA24F2DF67DF60DF88E191E09983E9
:14066200888321E001E014DF8BE091E09983888321E002E0BE
:140676000DDF80E091E09983888321E003E006DF12C005E00C
:14068A0010E092DDB9DFA02E81E08C832A2C33244424552499
:14069E00288239824A825B8224E003E04ADEEDCF2596089517
:1406B2003A932A931A930A930895E89401C0689430D0CC249A
:1406C60009C0E89401C068942AD037FD0E944904B7FD52D02B
:1406DA00772488249924AA24BB2442D0C1F045D0B1F0E8E218
:1406EE00000F111F221F331F771C881C991CAA1CBB1C8816FF
:140702009906AA06BB0628F0881A990AAA0ABB0A0395EA95E6
:1407160059F726F4082D192D2A2D3B2D13C07A928A929A9204
:14072A00AA92BA92CA92EA938A939A93AA93BA938B859C8555
:14073E00AD85BE85C32E0EF0CB260895C7FC0E944904B991B9
:14075200A99199918991E991C990B990A99099908990799075
:1407660024960895E02FE12BE22BE32B0895E82FE92BEA2B15
:14077A00EB2B089580959095A095B0958F5F9F4FAF4FBF4F1C
:14078E0008950E9452047A920E946B0459F177240E947104A9
:1407A20019F48C019D0124C00A921A92089FB02CA12C289FC8
:1407B600902C812C189FA00C911C871C099FA00C911C871C6F
:1407CA00199F900C811C0A9F900C811C389F800C299F800C91
:1407DE001A9F800C0B9F800C199009900B2D1A2D292D382D10
:1407F20079900C946004A990B990C990D990E990F9904991C6
:1408060059910895A990B990C990D990E990F990499159914D
:14081A006991799108957A936A935A934A93FA92EA92DA92E1
:14082E00CA92BA92AA9208957A936A935A934A93BA92AA92D9
:140842000895A990B990499159916991799108955A934A9354
:14085600DA92CA92BA92AA920895A990B990C990D990499183
:14086A00599108957A936A935A934A93DA92CA92BA92AA92CF
:14087E000895A990B990C990D9904991599169917991089520
:1408920000951095209530950F5F1F4F2F4F3F4F08958A92FD
:1408A6009A92AA92BA92EA938A939A93AA93BA9389859A850C
:1408BA00AB85BC850895B991A99199918991E991B990A99058
:1408CE009990899024960895EE27E02BE12BE22BE32B089599
:0C08E200EE27E82BE92BEA2BEB2B089506
:00000001FF
