:100000000C9446000C9463000C9463000C94630001
:100010000C9463000C9463000C9463000C946300D4
:100020000C9463000C9463000C9463000C946300C4
:100030000C9463000C9463000C9463000C946300B4
:100040000C9463000C9463000C9463000C946300A4
:100050000C9463000C9463000C9463000C94630094
:100060000C9463000C9463000C9463000C94630084
:100070000C9463000C9463000C9463000C94630074
:100080000C9463000C9463000C94630011241FBE55
:10009000CFEFD0E1DEBFCDBF11E0A0E0B1E0EAE8F4
:1000A000F4E002C005900D92AC31B107D9F711E030
:1000B000ACE1B1E001C01D92AC35B107E1F70E949F
:1000C000EF010C9443020C9400008FB9779BFECF94
:1000D0000895982F88EF8FB9779BFECF892F807F67
:1000E0008FB9779BFECF9295907F9FB9779BFECF7C
:1000F00088EB8A95F1F70895982F8AEF8FB9779B4F
:10010000FECF892F807F8FB9779BFECF9295907F0E
:100110009FB9779BFECF88EB8A95F1F70895AC01E4
:1001200088EF8FB9779BFECF1FB8779BFECF80E219
:100130008FB9779BFECF88EB8A95F1F720E030E00E
:100140006AEF98EBFA01E20FF31FE0816FB9779B3A
:10015000FECF8E2F807F8FB9779BFECFE295E07F19
:10016000EFB9779BFECF892F8A95F1F72F5F3F4F2D
:100170002031310539F7DA01FA0160E23AEF98EB04
:1001800020A13FB9779BFECF822F807F8FB9779BCD
:10019000FECF2295207F2FB9779BFECF892F8A959E
:1001A000F1F76F5F3196603359F730E17AEF98EBF2
:1001B00050962C9150977FB9779BFECF822F807FEE
:1001C0008FB9779BFECF2295207F2FB9779BFECFEB
:1001D000892F8A95F1F73F5F1196303249F7FA017E
:1001E000F0963AEF28EB90813FB9779BFECF892FAD
:1001F000807F8FB9779BFECF9295907F9FB9779B39
:10020000FECF822F8A95F1F76F5F31966F3359F7E2
:100210000895CF93DF93FB01EC0120E343C043300B
:1002200021F1443028F44130B1F14230C1F528C009
:10023000443069F0453099F5CF0160E177E20E94E2
:100240002F02605D6883CF0160E177E20AC0CF01D1
:1002500068EE73E00E942F02605D6883CF0168EE54
:1002600073E00E942F02FC011BC0CF0164E670E026
:100270000E942F02605D6883CF0164E670E0F1CFD9
:10028000CF016AE070E00E942F02605D6883CF01B9
:100290006AE070E0E6CFE05DE883E05301C02883C8
:1002A00041502196442309F0BACFDF91CF910895B0
:1002B00087B38E6087BB80E58DB981E08EB988EF0A
:1002C0008FB9779BFECF1FB8779BFECF80EC8FB99D
:1002D000779BFECF88EB8A95F1F788EF8FB9779BF4
:1002E000FECF1FB8779BFECF80E18FB9779BFECF03
:1002F00088EB8A95F1F786E69EE00197F1F78CE1AD
:1003000091E060E270E040E450E00E94280208952D
:10031000AF92BF92CF92DF92EF92FF920F93DF9353
:10032000CF93CDB7DEB70D85AE84BF84E888F9885A
:100330000295007F8C85080FDE01529641C0013482
:1003400008F043C08C3551F40894E11CF11C950170
:10035000200F311DF7018081F9012DC0853241F553
:100360000894E11CF11CF70180818436C1F40894E3
:10037000E11CF11C82E0C82ED12CCA0EDB1E6D914F
:100380007C91F70140814053C501800F911D0E946F
:1003900009010153F7018081080FD6010DC0833692
:1003A00059F4F501E00FF11D8C918083129604C081
:1003B000F501E00FF11D80830894E11CF11C0F5F33
:1003C000F7018081882309F0BACFCF91DF910F9197
:1003D000FF90EF90DF90CF90BF90AF900895FF9285
:1003E0000F931F930E94580100D000D000D0EDB7AA
:1003F000FEB7319692E0F92EADB7BEB71196FC92DA
:1004000081E081830CE111E01383028380E091E0BD
:10041000958384830E948801EDB7FEB73196ADB70E
:10042000BEB71196FC92F182138302838DE091E0B6
:10043000958384830E9488018DB79EB706960FB678
:10044000F8949EBF0FBE8DBFC8010E948F00FFCFE2
:10045000DC0101C06D9341505040E0F70895AA1BA4
:10046000BB1B51E107C0AA1FBB1FA617B70710F09F
:10047000A61BB70B881F991F5A95A9F780959095D1
:0A048000BC01CD010895F894FFCFF0
:10048A00C9EEDBDACEA2D1A9B5E7D7D30077617678
:0C049A006573686172652E6E6574000069
:00000001FF
