:100000000C94FA000C9420010C9420010C94200113
:100010000C9420010C9420010C9420010C942001DC
:100020000C9420010C9420010C9420010C942001CC
:100030000C9420010C9420010C9420010C942001BC
:100040000C9420010C9420010C9420010C942001AC
:100050000C9420010C9420010C9420010C9420019C
:100060000C9420010C9420010C9420010C9420018C
:100070000C9420010C9420010C9420010C9420017C
:100080000C9420010C9420010C9420010C9420016C
:100090000C9420010C9420010C9420010C9420015C
:1000A0000C9420010C9420010C9420010C9420014C
:1000B0000C9420010C9420010C9420010C9420013C
:1000C0000C9420010C9420010C9420010C9420012C
:1000D0000C9420010C9420010C9420010C9420011C
:1000E0000C9420010C9420010C9420010C9420010C
:1000F0000C9420010C9420010C9420010C942001FC
:100100000C9420010C9420010C9420010C942001EB
:100110000C9420010C9420010C9420010C942001DB
:100120000C9420010C9420010C9420010C942001CB
:100130000C9420010C9420010C9420010C942001BB
:100140000C9420010C9420010C9420010C942001AB
:100150000C9420010C9420010C9420010C9420019B
:100160000C9420010C9420010C9420010C9420018B
:100170000C9420010C9420010C9420010C9420017B
:100180000C9420010C9420010C9420010C9420016B
:100190000C9420010C9420010C9420010C9420015B
:1001A0000C9420010C9420010C9420010C9420014B
:1001B0000C9420010C9420010C9420010C9420013B
:1001C0000C9420010C9420010C9420010C9420012B
:1001D0000C9420010C9420010C9420010C9420011B
:1001E0000C9420010C9420010C9420010C9420010B
:1001F0000C94200111241FBECFEFDFE3DEBFCDBF83
:1002000000E00CBF18BE19BE1ABE1BBE10E2A0E073
:10021000B0E2E2E1FEE000E00BBF02C007900D9209
:10022000A433B107D9F71BBE10E2A4E3B0E201C0CA
:100230001D92A134B107E1F70E949F020C940707B9
:100240000C940000FC016083718342831486138642
:10025000168615860895FC0162830895FC01858544
:10026000968520E08F5F8370891321E0822F0895A7
:10027000DC011D968C911D971E969C911E9720E087
:100280008F5F83708917B1F021E01D968C911D97C7
:10029000FD01E80FF11D67838F5F83701D968C93BE
:1002A0001D97ED91FC91119783818C7F12969C9103
:1002B000892B8383822F0895FC019385848520E018
:1002C000981321E0822F0895DC011C968C911C97D5
:1002D000FD01E80FF11D83811C969C911C979F5F87
:1002E00093701C969C930895DC011B969C911B9720
:1002F0009F5F93701C968C911C97ED91FC911197C8
:100300002081981711F480E008951B968C911B971B
:10031000FD01E80FF11D23831B969C9381E0089556
:10032000CF93DF93DC011E969C911E971D968C91B6
:100330001D97CD91DC911197891721F48B818C7FCA
:100340008B830FC01E968C911E97FD01E80FF11D47
:10035000878188831E968C911E978F5F83701E966F
:100360008C93DF91CF910895FC0170FF03C08481CD
:10037000816002C084818E7F848360830895FC0144
:10038000848180FF05C08081282F30E0316003C068
:100390008081282F30E0C9010895DC0182E0A0307F
:1003A000B80781F482E08093CA01E0E2F0E0E491D2
:1003B0001092CA011C96EC931C978093CA01E1E24B
:1003C000F0E00FC082E08093CA01E4E2F0E0E49143
:1003D0001092CA011C96EC931C978093CA01E5E227
:1003E000F0E0E4911092CA011D96EC930895FC018F
:1003F00081E0838324813581261B3109C901089559
:10040000FC0181E0838324813581772767FD709526
:10041000261B370BC9010895FC0181E083832481E9
:100420003581C9010895FC0181E0838384810895A9
:10043000FC0181E0838385810895FC01848114821D
:10044000A0E0B2E01197F1F784830895FC01948154
:1004500081E08483A0E0B4E01197F1F794830895DC
:10046000FB014423D9F020E030E040E050E061E0BF
:10047000808180688083838180FFFDCF6383848156
:100480009581280F391F4F5F5F4F4430510581F729
:100490003695279536952795822F08958081806817
:1004A0008083838180FFFDCF81E083838481958178
:1004B0000895FB014423D9F040E050E020E030E013
:1004C00061E0808180688083838180FFFDCF6383CA
:1004D00084819581480F591F2F5F3F4F243031058C
:1004E00081F7CA0164E070E00E942E040BC0808195
:1004F00080688083838180FFFDCF81E08383848156
:100500009581682F862F0895AAECB1E092E09C9324
:10051000E82FF0E0E4911C928E2F08951F93182F7E
:100520008A3019F48DE00E948E028091A10B85FF24
:10053000FCCF1093A00B80E090E01F910895FF92F4
:100540000F931F93CF93DF9386E290E280933D2039
:1005500090933E2080915000826080935000809163
:10056000510081FFFCCF81E00E94BA0381E00E942C
:100570009803E0EAF6E088E0F82EF182F58284E064
:1005800082838583E0EAFBE083E0858382E28683E1
:1005900017828091A40B806184838091A40B886072
:1005A000848380E092E00E94CD0100E012E080911F
:1005B0000102897E8061D80111968C9311978091F8
:1005C0000402876014968C931497809102028F7CAA
:1005D000806112968C93129780912002807E8160B8
:1005E0008093200280912802807E8160809328027F
:1005F00080913002807E816080933002E0E2F2E000
:100600001182E8E2F2E0F18280E1E0E3F2E081834E
:1006100080910302806C13968C938091000281601C
:100620008093000280E092E00E9426028091010205
:100630008860F801818300E010E2C0E2D3E080919D
:10064000230280FFFCCF80E292E060E00E94000283
:10065000809334209093352080912B0280FFFCCF33
:1006600088E292E060E00E9400028093362090933E
:1006700037208091330280FFFCCF80E392E060E07E
:100680000E94000280933820909339202DB73EB706
:10069000285030402DBF3EBFEDB7FEB73196ADB705
:1006A000BEB711960D931C93129720913420309170
:1006B00035202283338320913620309137202483C4
:1006C0003583868397830E94550488E893E1EDB7CC
:1006D000FEB73896EDBFFEBFFE013197F1F70197E7
:1006E000D9F7ADCF0F93DF93CF930F92CDB7DEB78E
:1006F0002FB72983F8941BBEFC0108ED04BF60836B
:1007000089818FBF0F90CF91DF910F91089566235C
:1007100011F490E001C090E2482B942BE0E5F0E06A
:10072000928308956F71682BE0E5F0E0658308958A
:10073000E0E5F0E02081982F9095922390839081BE
:10074000892308950F93DF93CF930F92CDB7DEB730
:100750009FB79983F8941BBE682B81E490E0FC015D
:1007600008ED04BF608389818FBF0F90CF91DF9127
:100770000F9108950F93DF93CF930F92CDB7DEB70C
:10078000209140009FB79983F8941BBEA0E4B0E08D
:10079000287F282BFD0108ED04BF208399819FBF8E
:1007A0009C9189230F90CF91DF910F910895E0E400
:1007B000F0E09381917F9160982B93830895282F87
:1007C00030915600662311F0982F01C090E0822FDF
:1007D00080958323982BE0E5F0E09683213031F477
:1007E000809168008160809368000895223029F428
:1007F0008091600081608093600008950F93DF9383
:10080000CF930F92CDB7DEB78FB78983F8941BBE15
:1008100023E083E590E0FC0108ED04BF208389819B
:100820008FBF0F90CF91DF910F9108950F93DF93BA
:10083000CF930F92CDB7DEB78FB78983F8941BBEE5
:1008400021E082E490E0FC0108ED04BF208389816F
:100850008FBF0F90CF91DF910F91089597FB092ED5
:1008600007260AD077FD04D00CD006D000201AF459
:10087000709561957F4F0895F6F7909581959F4FFC
:100880000895AA1BBB1B51E107C0AA1FBB1FA617D7
:10089000B70710F0A61BB70B881F991F5A95A9F729
:1008A00080959095BC01CD010895DF93CF93CDB78E
:1008B000DEB7FE0136966191719180913D20909155
:1008C0003E20AF010E946704CF91DF9108952F92DF
:1008D0003F924F925F926F927F928F929F92AF92D0
:1008E000BF92CF92DF92EF92FF920F931F93DF930D
:1008F000CF93CDB7DEB72B97CDBFDEBF3C012B0129
:100900005A01FC0116821782838181FD03C06FEFBB
:100910007FEFC6C19AE0892E1E010894211C311C6C
:10092000F3012381F20123FD859123FF81912F01A2
:10093000882309F4B2C1853239F423FD859123FF60
:1009400081912F01853229F490E0B3010E947D0648
:10095000E7CF982FFF24EE249924FFE1FF15D0F074
:100960009B3269F09C3228F4903259F0933291F422
:100970000EC09D3249F0903369F441E024C052E04A
:10098000F52A84E0F82A28C098E0F92A25C0E0E199
:10099000FE2A22C0F7FC29C0892F80538A3070F4C8
:1009A000F6FE05C0989C902C1124980E15C0E89C6A
:1009B000E02C1124E80EF0E2FF2A0EC09E3229F44A
:1009C000F6FC6BC140E4F42A07C09C3619F450E8E9
:1009D000F52A02C0983649F4F20123FD959123FFD0
:1009E00091912F01992309F0B8CF892F8554833035
:1009F00018F08052833038F444E050E0A40EB51E65
:100A00005FE359830FC0933631F0933779F0933514
:100A100009F056C020C0F5018081898342E050E092
:100A2000A40EB51E610101E010E012C0F501C08006
:100A3000D180F6FC03C06FEF7FEF02C0692D70E03C
:100A400042E050E0A40EB51EC6010E9472068C0161
:100A50005FE7F52214C0F501C080D180F6FC03C029
:100A60006FEF7FEF02C0692D70E042E050E0A40E0E
:100A7000B51EC6010E9467068C0150E8F52AF3FEF8
:100A800007C01AC080E290E0B3010E947D06EA949C
:100A90008E2D90E008171907A8F30EC0F601F7FC99
:100AA0008591F7FE81916F0190E0B3010E947D0670
:100AB000E110EA94015010400115110579F7EAC0E0
:100AC000943611F0993669F5F7FE08C0F5012081DA
:100AD00031814281538184E090E00AC0F501808138
:100AE00091819C01442737FD4095542F82E090E08E
:100AF000A80EB91E9FE6F92257FF09C050954095F0
:100B0000309521953F4F4F4F5F4FE0E8FE2ACA01D5
:100B1000B901A1012AE030E00E94A906D82ED2181E
:100B200040C0953729F41F2D1F7E2AE030E01DC0FC
:100B30001F2D197F9F3661F0903720F4983509F00A
:100B4000ACC00FC0903739F0983709F0A6C004C088
:100B500028E030E00AC0106114FD146020E130E0AC
:100B600004C014FD166020E132E017FF08C0F50153
:100B7000608171818281938144E050E008C0F50179
:100B800080819181BC0180E090E042E050E0A40EC1
:100B9000B51EA1010E94A906D82ED2188FE7F82E03
:100BA000F122F6FE0BC05EEFF522D91438F4F4FE04
:100BB00007C0F2FC05C08FEEF82202C01D2D01C057
:100BC000192DF4FE0DC0FE01ED0DF11D8081803365
:100BD00019F499EEF92208C01F5FF2FE05C003C0A8
:100BE0008F2D867809F01F5F0F2DF3FC14C0F0FEE7
:100BF0000FC01E1510F09D2C0BC09D2C9E0C911A41
:100C00001E2D06C080E290E0B3010E947D061F5FAA
:100C10001E15C0F304C01E1510F4E11A01C0EE2425
:100C200004FF0FC080E390E0B3010E947D0602FF45
:100C30001DC001FD03C088E790E00EC088E590E08C
:100C40000BC0802F867891F001FF02C08BE201C0BB
:100C500080E2F7FC8DE290E0B3010E947D0606C0C1
:100C600080E390E0B3010E947D069A94D914C0F30A
:100C7000DA94F101ED0DF11D808190E0B3010E9445
:100C80007D06DD20A9F706C080E290E0B3010E9456
:100C90007D06EA94EE20C1F743CEF30166817781A9
:100CA000CB012B96CDBFDEBFCF91DF911F910F916E
:100CB000FF90EF90DF90CF90BF90AF909F908F907C
:100CC0007F906F905F904F903F902F900895FC0120
:100CD0000590615070400110D8F7809590958E0F67
:100CE0009F1F0895FC016150704001900110D8F7DA
:100CF000809590958E0F9F1F08950F931F93CF930C
:100D0000DF938C01EB018B8181FF1BC082FF0DC043
:100D10002E813F818C819D812817390764F4E881F9
:100D2000F9810193E883F98306C0E885F985802F6E
:100D30001995892B31F48E819F8101968E839F8333
:100D400002C00FEF1FEFC801DF91CF911F910F91EC
:100D50000895FA01AA27283051F1203181F1E89451
:100D60006F936E7F6E5F7F4F8F4F9F4FAF4FB1E09E
:100D70003ED0B4E03CD0670F781F891F9A1FA11D99
:100D8000680F791F8A1F911DA11D6A0F711D811D9A
:100D9000911DA11D20D009F468943F912AE0269F5F
:100DA00011243019305D3193DEF6CF010895462FBE
:100DB0004770405D4193B3E00FD0C9F7F6CF462F9F
:100DC0004F70405D4A3318F0495D31FD4052419308
:100DD00002D0A9F7EACFB4E0A695979587957795C5
:100DE0006795BA95C9F700976105710508959B014C
:100DF000AC010A2E06945795479537952795BA95D5
:100E0000C9F7620F731F841F951FA01D0895F894E2
:020E1000FFCF12
:100E120074656D70657261747572653A25583B0927
:100E2200766F6C746167653A25583B096C6967682F
:100E3200743A25580A0000000002000000008E02E9
:040E420000000000AC
:00000001FF
