:100000000C9446000C945D000C945D000C945D0013
:100010000C945D000C945D000C945D000C945D00EC
:100020000C945D000C945D000C945D000C945D00DC
:100030000C945D000C945D000C945F000C945D00CA
:100040000C945D000C945D000C945D000C945D00BC
:100050000C945D000C945D000C945D000C945D00AC
:100060000C945D000C945D000C945D000C945D009C
:100070000C945D000C945D000C945D000C945D008C
:100080000C945D000C945D000C945D0011241FBE67
:10009000CFEFD0E1DEBFCDBF11E0A0E0B1E0ECE0FA
:1000A000F1E000E00BBF02C007900D92A030B10755
:1000B000D9F70E9474000C9484000C9400001F92E5
:1000C0000F920FB60F9211248F939F9382E393EEBA
:1000D0009DBD8CBD8BB380958BBB9F918F910F90F5
:1000E0000FBE0F901F9018958FEF8ABB1BBA1FBCD5
:1000F00085E08EBD10927A0082E393EE9DBD8CBDAB
:0C01000084E087BF7894FFCFF894FFCF15
:00000001FF
