:040000000C94380024
:14007000CFEFD4E0CDBFDEBFC051D0400AEA08830024E0E05D
:14008400F1E011E0E630F10711F00192FBCF0083E0E7F0E020
:14009800A0E0B1E010E000E00BBFE037F10721F0C895319665
:1400AC000D92F9CF0E942B01FFCF0E945A010E940D022897D0
:1400C000CC88AA2481E0888380E089838A838B833CC0288073
:1400D40039804A805B80088919892A893B895A924A923A927C
:1400E8002A920E945F010C831D832E833F834AE050E060E00A
:1400FC0070E00C811D812E813F817A936A935A934A930E9490
:14011000610180E091E0EA2DFF27E80FF91F00832880398078
:140124004A805B804AE050E060E070E05A924A923A922A92E8
:140138008A019B010E94C901088319832A833B83A3942C2CFF
:14014C00332427FC30944A2C5524421453040CF4BACF28967E
:140160000E941602249608954A9307C0442701C04395463458
:14017400E8F3015010402224332420163106A4F349910895E3
:140188004A935A9313C04427552702C04F5F5F4F82EA9DECCC
:14019C00A0E0B0E01A0144245524281639064A065B0694F38E
:1401B00001501040222433242016310644F3599149910895F8
:1401C4004A935A934427552702C04F5F5F4F40175107D8F3DE
:1401D8005991499108958CE58DB908950FB9779BFECF08951A
:1401EC000E940802A22E680104E8F6DF0FEFF4DF8601012FD1
:140200001127F0DF0C2DEEDF0A2DECDF0C94FD01AA92BA92B5
:14021400580104E5E5DF0FEFE3DF8501012F1127DFDF0A2D2D
:14022800DDDF0FEFDBDF0FEFD9DFAFB00A2DB990A9900895E3
:14023C0022242BBA8FEF8ABB88BB8FEB87BB25BA8FEF84BB25
:1402500022BA81BB0895F2DFC2DF88B38B7F88BB01E010E01A
:1402640091DFC39AC29A44270CC088B38F7E88BB242F042F15
:140278001127B8DFC49A02E010E072DF43954F3F90F34427CE
:14028C000CC088B38F7E88BB042F1127BBDF0BBBC49A05E0F9
:1402A00010E072DF43954F3F90F388B3877F88BBFFCF089531
:1402B4003A932A931A930A930895E89401C0689430D0CC249C
:1402C80009C0E89401C068942AD037FD0E941F02B7FD52D059
:1402DC00772488249924AA24BB2442D0C1F045D0B1F0E8E21A
:1402F000000F111F221F331F771C881C991CAA1CBB1C881601
:140304009906AA06BB0628F0881A990AAA0ABB0A0395EA95E8
:1403180059F726F4082D192D2A2D3B2D13C07A928A929A9206
:14032C00AA92BA92CA92EA938A939A93AA93BA938B859C8557
:14034000AD85BE85C32E0EF0CB260895C7FC0E941F02B991E7
:14035400A99199918991E991C990B990A99099908990799077
:1403680024960895E02FE12BE22BE32B0895E82FE92BEA2B17
:14037C00EB2B089580959095A095B0958F5F9F4FAF4FBF4F1E
:1403900008950E9428027A920E94410259F177240E9447022F
:1403A40019F48C019D0124C00A921A92089FB02CA12C289FCA
:1403B800902C812C189FA00C911C871C099FA00C911C871C71
:1403CC00199F900C811C0A9F900C811C389F800C299F800C93
:1403E0001A9F800C0B9F800C199009900B2D1A2D292D382D12
:1403F40079900C943602A990B990C990D99008957A936A9329
:140408005A934A93FA92EA92DA92CA92BA92AA9208957A9314
:14041C006A935A934A93DA92CA92BA92AA920895A990B99096
:14043000C990D99049915991699179910895009510952095A2
:1404440030950F5F1F4F2F4F3F4F08958A929A92AA92BA928A
:14045800EA938A939A93AA93BA9389859A85AB85BC85089504
:14046C00B991A99199918991E991B990A990999089902496BC
:140480000895EE27E02BE12BE22BE32B0895EE27E82BE92BAB
:06049400EA2BEB2B08959A
:00000001FF
