:100000000C942E000C9438000C9438000C9438009A
:100010000C9438000C9438000C9438000C94380080
:100020000C9438000C9438000C9438000C94380070
:100030000C9438000C9438000C9438000C94380060
:100040000C9438000C9438000C9438000C94380050
:100050000C9438000C9438000C94380011241FBE06
:10006000CFEFD4E0DEBFCDBF0E94A2000C94B3005E
:100070000C940000259A2D9889E993E00197F1F7F7
:100080002D9A86E58A95F1F725981D99FECF01C036
:10009000259A1D9BFDCF089580E020E037E043E9DD
:1000A0002D9A259A2D988695932F9A95F1F7259854
:1000B0002D9A932F9A95F1F71D998068942F9A9510
:1000C000F1F72F5F283061F70895259A20E04FE976
:1000D0003CE080FF07C02D98932F9A95F1F72D9A59
:1000E000942F06C02D98942F9A95F1F72D9A932F5F
:1000F0009A95F1F72F5F283011F08695EACF089591
:100100000E943A008CEC0E94650084E40E94650025
:1001100008951F930E9480000E943A008CEC0E9478
:1001200065008EEB0E9465000E944C00182F0E9413
:100130004C008295807F12951F70182B812F8F772E
:100140001F910895CF93DF938FEF81B9C8EBD0E073
:100150000E94890082B980E197E2FE013197F1F7B0
:0A0160000197D9F7F5CFF894FFCF0F
:00000001FF
