:100000000C94FA000C9420010C9420010C94200113
:100010000C9420010C9420010C9420010C942001DC
:100020000C9420010C9420010C9420010C942001CC
:100030000C9420010C9420010C9420010C942001BC
:100040000C9420010C9420010C9420010C942001AC
:100050000C9420010C9420010C9420010C9420019C
:100060000C9420010C9420010C9420010C9420018C
:100070000C9420010C9420010C9420010C9420017C
:100080000C9420010C9420010C9420010C9420016C
:100090000C9420010C9420010C9420010C9420015C
:1000A0000C9420010C9420010C9420010C9420014C
:1000B0000C9420010C9420010C9420010C9420013C
:1000C0000C9420010C9420010C9420010C9420012C
:1000D0000C9420010C9420010C9420010C9420011C
:1000E0000C9420010C9420010C9420010C9420010C
:1000F0000C9420010C9420010C9420010C942001FC
:100100000C9420010C9420010C9420010C942001EB
:100110000C9420010C9420010C9420010C942001DB
:100120000C9420010C9420010C9420010C942001CB
:100130000C9420010C9420010C9420010C942001BB
:100140000C9420010C9420010C9420010C942001AB
:100150000C9420010C9420010C9420010C9420019B
:100160000C9420010C9420010C9420010C9420018B
:100170000C9420010C9420010C9420010C9420017B
:100180000C9420010C9420010C9420010C9420016B
:100190000C9420010C9420010C9420010C9420015B
:1001A0000C9420010C9420010C9420010C9420014B
:1001B0000C9420010C9420010C9420010C9420013B
:1001C0000C9420010C9420010C9420010C9420012B
:1001D0000C9420010C9420010C9420010C946401D7
:1001E0000C942F010C9420010C9420010C942001FC
:1001F0000C94200111241FBECFEFDFE3DEBFCDBF83
:1002000000E00CBF18BE19BE1ABE1BBE10E2A0E073
:10021000B0E2ECE0F5E000E00BBF02C007900D9209
:10022000A430B107D9F71BBE10E2A4E0B0E201C0D0
:100230001D92A731B107E1F70E9499010C94840245
:100240000C9400008093F90808958093FA080895AB
:10025000E8EFF8E09081907F982B908308951F92AB
:100260000F920FB60F9208B60F9209B60F920BB607
:100270000F92112418BE19BE1BBE2F933F934F93AC
:100280005F936F937F938F939F93AF93BF93EF93FE
:10029000FF9388E090E20E944702FF91EF91BF91A7
:1002A000AF919F918F917F916F915F914F913F910E
:1002B0002F910F900BBE0F9009BE0F9008BE0F90AC
:1002C0000FBE0F901F9018951F920F920FB60F92AE
:1002D00008B60F9209B60F920BB60F92112418BEF2
:1002E00019BE1BBE2F933F934F935F936F937F93E2
:1002F0008F939F93AF93BF93EF93FF9388E090E228
:100300000E942B02FF91EF91BF91AF919F918F912E
:100310007F916F915F914F913F912F910F900BBE05
:100320000F9009BE0F9008BE0F900FBE0F901F9048
:1003300018951F93CF93DF93E0EAF6E088E081837E
:1003400084E0828388E090E260EA7BE041E00E9402
:10035000D901A0910820B091092083E015968C93D3
:100360001597E0EAFBE08CE0868317828091A50B6D
:100370008F738068858314968C9114978860149687
:100380008C938091A2008160E0EAF0E0828378940F
:1003900010E0C2E3D0E088E090E2612F0E94EF011C
:1003A0001F5F80E197E2FE013197F1F70197D9F7DE
:1003B000F2CFFC0160837183428314861386168614
:1003C00015860895FC0162830895FC018585968554
:1003D00020E08F5F8370891321E0822F0895DC0174
:1003E0001D968C911D971E969C911E9720E08F5F05
:1003F00083708917B1F021E01D968C911D97FD0146
:10040000E80FF11D67838F5F83701D968C931D9796
:10041000ED91FC91119783818C7F12969C91892B91
:100420008383822F0895FC019385848520E09813AF
:1004300021E0822F0895DC011C968C911C97FD0110
:10044000E80FF11D83811C969C911C979F5F937010
:100450001C969C930895DC011B969C911B979F5FB3
:1004600093701C968C911C97ED91FC9111972081B3
:10047000981711F480E008951B968C911B97FD014D
:10048000E80FF11D23831B969C9381E00895CF9381
:10049000DF93DC011E969C911E971D968C911D97F3
:1004A000CD91DC911197891721F48B818C7F8B83FF
:1004B0000FC01E968C911E97FD01E80FF11D8781DC
:1004C00088831E968C911E978F5F83701E968C93E7
:1004D000DF91CF910895FC0170FF03C0848181609A
:1004E00002C084818E7F848360830895FC018481AF
:1004F00080FF05C08081282F30E0316003C08081FB
:0C050000282F30E0C9010895F894FFCFC7
:04050C0055AAF000FC
:00000001FF
