:040000000C944B0011
:14007000C4DAC8DD3A00B4AEBFDA2020D2BABEA7CFD4CABEA8
:11008400004D41583438352D4C4344313238363400DF
:14009600CFEFD4E0CDBFDEBFC051D0400AEA08830024E5E230
:1400AA00F1E011E0EB32F10711F00192FBCF0083E0E7F0E0F3
:1400BE00A0E0B1E010E0E539F10721F0C89531960D92F9CF7B
:1400D2000E94DE02FFCF0E9404030E94B8032897CC88AA24E3
:1400E60041E050E060E070E0FE01408351836283738346C0AE
:1400FA00FE012080318042805380FE01608871888288938808
:14010E005A924A923A922A92830194010E940903FE01048340
:140122001583268337834AE050E060E070E0FE01248035808C
:14013600468057807A936A935A934A93810192010E940B037F
:14014A0085E291E0EA2DFF27E80FF91F0083FE0120803180AA
:14015E00428053804AE050E060E070E05A924A923A922A92BE
:140172008A019B010E947A03FE010083118322833383A3948B
:14018600AC1408F4B7CF28960E94B003249608950E94BE0356
:14019A0007C0442701C043954634E8F30150104022243324F3
:1401AE0020163106A4F30E94C10308950E94BE030BC044279D
:1401C200552702C04F5F5F4F423AEDEC5E07D0F30150104071
:1401D600222433242016310684F30E94C10308950E94BE032E
:1401EA004427552702C04F5F5F4F40175107D8F30E94C1031C
:1401FE0008958FEF87BB80E58DB981E08EB9789408950FB9CC
:14021200779BFECF08950E94BC03422F602F08EFF6DF062FFA
:14022600F4DF042FF2DF0E94AA0308950E94BC03422F602FA0
:14023A000AEFE9DF062FE7DF042FE5DF0E94AA0308950E946F
:14024E00BC03622F402F55274130E0E05E0769F04230E0E040
:140262005E0761F04330E0E05E0759F04430E0E05E0751F017
:140276000BC0462F415808C0462F415705C0462F495702C02A
:14028A00462F4956242F2F702F702295042F007FBEDF0E9413
:14029E00AA0308950E94BC03622F402F262F042FCEDF04E187
:1402B20010E070DF2C812F702F7022950C81007FB7DF0E9413
:1402C600AA0308950E94BC03622F402F219709840882FE01AB
:1402DA000581168127813085FADE262F042FB1DF08E210E0CC
:1402EE0053DF498541501EC085E291E0E42FFF27E7FDF09513
:14030200E80FF91F80819927C096282F2F703070220F331FA8
:14031600220F331F220F331F220F331F082F007F107084DFB1
:14032A0008E210E033DF4A95403004F721960E94AA030895E6
:14033E000E94B603E22EA02E21974FE352E46FE070E0FE01B4
:140352002384348445845684421553056405750518F487E090
:14036600C82E57C04FE956E861E070E0FE0123843484458448
:14037A005684421553056405750518F486E0C82E46C04FE066
:14038E0057E260E070E0FE01238434844584568442155305E2
:1403A2006405750518F485E0C82E35C047EE53E060E070E010
:1403B600FE012384348445845684421553056405750518F494
:1403CA0084E0C82E24C043E650E060E070E0FE01238434849A
:1403DE0045845684421553056405750518F483E0C82E13C09E
:1403F20049E050E060E070E0FE0123843484458456844215B6
:1404060053056405750518F482E0C82E02C0CC24C394C882F0
:14041A00FE01038514852585368559DE2E2D0A2D10DF08E2A7
:14042E0010E0B2DE0F84C01478F4802D8C198150A82E07C0A7
:14044200222700E2F5DE08E210E0A4DEAA948A2D8030B4F7FC
:140456008C2D8150A82E1EC085E291E0EA2DFF27E7FDF095D6
:14046A00E80FF91F80819927C096282F2F703070220F331F3F
:14047E00220F331F220F331F220F331F082F007F1070D0DEFD
:1404920008E210E07FDEAA948A2D8030FCF621960E94B30379
:1404A60008950E94BA03A22E602F4E815F812A2D062FC9DE05
:1404BA0004E110E06BDE0FC0FA0120803324222D2F702F70C2
:1404CE002295022D007FAEDE4F5F5F4F04E110E05BDEFA01C4
:1404E2002080222069F70E94AD0308950E94B803C22EA02EBA
:1404F600688579854A852C2D0A2DA5DE04E110E047DE0FC05C
:14050A00FB0120803324222D2F702F702295022D007F8ADE90
:14051E006F5F7F4F042F112749DEFB012080222069F70E94BB
:14053200B003089520E100276EDE08EC10E02ADE08955DDE2D
:1405460001E010E037DE20E300E363DE20EC002760DE20E122
:14055A0000275DDE20E600275ADE01E010E028DE089522240C
:14056E002BB888E18AB986E080BD20BC8FE289B908955D9B23
:14058200FECF0CB908955F9903C00FEF1FEF09C02BB10CB10D
:14059600822F8C7119F00FEF1FEF01C0112708950E94BE0395
:1405AA00EEDFA8014F3FEFEF5E07D1F30E94C1030895229776
:1405BE008FEF8ABBC0DFB8DF85E191E09983888321E001E050
:1405D2006ADF86E091E09983888321E002E063DF80E091E0D8
:1405E6009983888321E003E05CDFBDDF03E6C5DFD7DF402F6D
:1405FA00488324E003E050DEFFCF229608953A932A931A93B3
:14060E000A930895E89401C068942FD0CC2408C0E89401C071
:14062200689429D037FD53D0B7FD5AD0772488249924AA24C8
:14063600BB2441D0C1F044D0B1F0E8E2000F111F221F331FBE
:14064A00771C881C991CAA1CBB1C88169906AA06BB0628F04D
:14065E00881A990AAA0ABB0A0395EA9559F726F4082D192DCE
:140672002A2D3B2D13C07A928A929A92AA92BA92CA92EA932D
:140686008A939A93AA93BA938B859C85AD85BE85C32E0EF0F7
:14069A00CB260895C7FC17D0B991A99199918991E991C99079
:1406AE00B990A99099908990799024960895E02FE12BE22BEC
:1406C200E32B0895E82FE92BEA2BEB2B089500951095209597
:1406D60030950F5F1F4F2F4F3F4F089580959095A095B09512
:1406EA008F5F9F4FAF4FBF4F08950E94D5037F920E94EE0359
:1406FE0039F177240E94F40319F48C019D0120C0089FB02CEF
:14071200A12C289F902C812C189FA00C911C871C099FA00CCF
:14072600911C871C199F900C811C0A9F900C811C389F800C39
:14073A00299F800C1A9F800C0B9F800C0B2D1A2D292D382DA2
:14074E007F900C94E303E2E00C94C203E4E00C94C203E8E0EA
:140762000C94C203EE270C94C203FA92EA92DA92CA92BA9288
:14077600AA927A936A935A934A930895E1E049915991E0FD60
:14078A00089569917991E1FD0895A990B990E2FD0895C990E8
:14079E00D990E3FD0895E990F99008958A929A92AA92BA92F2
:1407B200EA938A939A93AA93BA9389859A85AB85BC850895A7
:1407C600B991A99199918991E991B990A9909990899024965F
:1407DA000895EE27E02BE12BE22BE32B0895EE27E82BE92B4E
:0607EE00EA2BEB2B08953D
:00000001FF
