:100000000C94FA000C9420010C9420010C94200113
:100010000C9420010C9420010C9420010C942001DC
:100020000C9420010C9420010C9420010C942001CC
:100030000C9420010C9420010C9420010C942001BC
:100040000C9420010C9420010C9420010C942001AC
:100050000C9420010C9420010C9420010C9420019C
:100060000C9420010C9420010C9420010C9420018C
:100070000C9420010C9420010C9420010C9420017C
:100080000C9420010C9420010C9420010C9420016C
:100090000C9420010C9420010C9420010C9420015C
:1000A0000C9420010C9420010C9420010C9420014C
:1000B0000C9420010C9420010C9420010C9420013C
:1000C0000C9420010C9420010C9420010C9420012C
:1000D0000C9420010C9420010C9420010C9420011C
:1000E0000C9420010C9420010C9420010C9420010C
:1000F0000C9420010C9420010C9420010C942001FC
:100100000C9420010C9420010C9420010C942001EB
:100110000C9420010C9420010C9420010C942001DB
:100120000C9420010C9420010C9420010C942001CB
:100130000C9420010C9420010C9420010C942001BB
:100140000C9420010C9420010C9420010C942001AB
:100150000C9420010C9420010C9420010C9420019B
:100160000C9420010C9420010C9420010C9420018B
:100170000C9420010C9420010C9420010C9420017B
:100180000C9420010C9420010C9420010C9420016B
:100190000C9420010C9420010C9420010C9420015B
:1001A0000C9420010C9420010C9420010C9420014B
:1001B0000C9420010C9420010C9420010C9420013B
:1001C0000C9420010C9420010C9420010C9420012B
:1001D0000C9420010C9420010C9420010C9420011B
:1001E0000C9420010C9420010C9420010C9420010B
:1001F0000C94200111241FBECFEFDFE3DEBFCDBF83
:1002000000E00CBF18BE19BE1ABE1BBE10E2A0E073
:10021000B0E2EEE0F9E000E00BBF02C007900D9203
:10022000A431B107D9F71BBE10E2A4E1B0E201C0CE
:100230001D92AB35B107E1F70E94FB030C948504D6
:100240000C940000AF92CF92EF920F93DC01FB0170
:100250006D937C93119712964D935C93139714961C
:100260001C921497CC2011F490E001C090E8222356
:1002700011F480E001C080E200650A29902B892BEF
:100280008083ED91FC911197E18215961D921C924D
:1002900016971296ED91FC91139780EA81830F9146
:1002A000EF90CF90AF900895EF920F93DC01FB0198
:1002B0006D937C93119712964D935C931397222321
:1002C00011F480E401C080E6802B8083ED91FC91E5
:1002D0001197E1821296ED91FC91139780E481834E
:1002E0000F91EF900895EF920F931F93FC010083FD
:1002F0001183E28263837483458356832783108648
:1003000011861F910F91EF900895CF93DF93DC0139
:100310001596CD91DC9116979885ED91FC911197EA
:10032000808184FD05C081E014968C93149724C0CD
:100330008381ED81FE81E90FF11D80839F5F15961A
:10034000ED91FC9116978781981758F40380F481FA
:10035000E02DE90FF11D8081ED91FC9111978383D0
:100360000BC082810190F081E02D85831596ED917F
:10037000FC91169781E081871596ED91FC91169777
:100380009087DF91CF910895CF93DF93DC01EB014C
:1003900014969C9114971596ED91FC9116973097B1
:1003A00029F415966D937C93169710C08185882348
:1003B00011F482E028C0992349F01296ED91FC9146
:1003C0001397848184FD02C081E01DC01596CD93F2
:1003D000DC931697198614961C9214978A81E881EB
:1003E000F98186831596ED91FC91169710861596E6
:1003F000ED91FC9116970380F481E02D8081ED91C1
:10040000FC91838380E0DF91CF910895FC01A0816E
:10041000B18113966C930190F081E02D828187FF6A
:10042000FDCF83810895CF93DF93EC01FB0161152C
:10043000710511F480E037C06D837E834281A08115
:10044000B181109711F016964C93678190E01AC015
:10045000292F30E00380F481E02DE20FF31F80812B
:10046000E881F9818383E881F981828187FFFDCF6B
:100470008381ED81FE810580F681E02DE20FF31F7F
:1004800080839F5FED81FE81961710F30190F081CC
:10049000E02D309709F04583ED81FE816087ED8185
:1004A000FE8181E08187DF91CF9108951F93FC0148
:1004B0009B0110E343C0433021F1443028F4413024
:1004C000B1F14230C1F528C0443069F0453099F5AA
:1004D000C90160E177E20E946A04605D6083C9013E
:1004E00060E177E20AC0C90168EE73E00E946A0425
:1004F000605D6083C90168EE73E00E946A049C013C
:100500001BC0C90164E670E00E946A04605D6083FC
:10051000C90164E670E0F1CFC9016AE070E00E94B1
:100520006A04605D6083C9016AE070E0E6CF205D27
:100530002083205301C0108341503196442309F099
:10054000BACF1F910895CF92DF92EF92FF920F934F
:100550001F93CF93DF93FC01EB01CD2FDD27C295D5
:10056000CF7027E3D22EDC0E90E3E92EEC0EA72FFE
:10057000BB27AF70B07017E3F12EFA0E0A2F005DA3
:100580009B0154E0369527955A95E1F72F7030700E
:10059000822F122F195C805D90E3C92E6F707070EE
:1005A000562F505D962F995C2AC04230B9F04330E7
:1005B00018F4413009F519C0433049F04430E1F4F2
:1005C000CA30D10510F0D08218C0E08216C0AA301F
:1005D000B10510F0F08211C000830FC02A30310540
:1005E00010F010830AC0808308C06A30710510F0D3
:1005F000908303C0508301C0C08241503196442390
:10060000A1F6DF91CF911F910F91FF90EF90DF90B6
:10061000CF900895AF92BF92CF92DF92EF92FF9268
:100620000F93DF93CF93CDB7DEB70E85AF84B88835
:10063000E988FA880295007F8D85080FDE015396C0
:100640005DC0013408F05FC08C3551F40894E11CA2
:10065000F11C9501200F311DF7018081F90149C07E
:10066000853209F043C00894E11CF11CF701808138
:10067000843611F0843499F40894E11CF11C52E0A2
:10068000C52ED12CCA0EDB1E6D917C91F7014081E5
:100690004053C501800F911D0E94560221C0833630
:1006A00011F0833439F4F501E00FF11D8C91808352
:1006B000129620C0883711F08835E1F40894E11CC7
:1006C000F11C42E0C42ED12CCA0EDB1E6D917C9130
:1006D000F70140814053C501800F911D0E94A30284
:1006E0000153F7018081080FD60104C0F501E00F26
:1006F000F11D80830894E11CF11C0F5FF7018081DC
:10070000882309F09ECFCF91DF910F91FF90EF905A
:10071000DF90CF90BF90AF900895682F84E590E26E
:100720000E9406028091C20886FDFCCF08951F93A7
:10073000182F8AEF0E948D03812F807F0E948D03E6
:10074000812F8295807F0E948D0380E58A95F1F745
:100750001F9108951F93182F88EF0E948D03812FFA
:10076000807F0E948D03812F8295807F0E948D0360
:1007700080E58A95F1F71F910895CF92DF92EF926D
:10078000FF920F931F93CF93DF936C0182E00E943F
:10079000AA03C0E0D0E0F601EC0FFD1F80810E94AB
:1007A00097032196C031D105B1F77601E60100E249
:1007B00088A10E9497030F5F21960033C9F710E1CB
:1007C000F70180890E9497031F5F0894E11CF11CC8
:1007D0001032B1F7E601E09689910E9497030F5F0E
:1007E0000034D1F7DF91CF911F910F91FF90EF90DF
:1007F000DF90CF9008958F929F92AF92CF92EF9219
:100800000F931F9360E4862E66E0962E90E1D4014C
:1008100011969C93119788E354968C935497159650
:100820009C9380E593EC0197F1F784E590E260EC0E
:1008300078E040E456E020E000E0EE24CC24AA2456
:100840000E9422018CE00E94AA0381E00E94AA0378
:100850008CED95E00197F1F704E110E2C80160E248
:1008600070E040E450E00E947E0400D000D0EDB77C
:10087000FEB7319684E0ADB7BEB711968C93118266
:100880000283138380E090E2848395830E940A03AD
:10089000EDB7FEB7319683E0ADB7BEB711968C9336
:1008A00081E081830283138389E090E284839583CE
:1008B0000E940A03EDB7FEB73696EDBFFEBFC80132
:1008C0000E94BD038FEF8093400682E0D40114960E
:1008D0008C93FFCFAA1BBB1B51E107C0AA1FBB1FF4
:1008E000A617B70710F0A61BB70B881F991F5A95BC
:1008F000A9F780959095BC01CD010895DC0101C058
:0E0900006D9341505040E0F70895F894FFCFFA
:10090E00CEA2D1A9B5E7D7D30057617665736861DA
:04091E0072650000FE
:00000001FF
