:100000000C942E000C944B000C944B000C944B0061
:100010000C944B000C944B000C944B000C944B0034
:100020000C944B000C944B000C944B000C944B0024
:100030000C944B000C944B000C944B000C944B0014
:100040000C944B000C944B000C944B000C944B0004
:100050000C944B000C944B000C944B0011241FBECD
:10006000CFEFD4E0DEBFCDBF11E0A0E0B1E0E0E52E
:10007000F8E002C005900D92AA31B107D9F711E05E
:10008000AAE1B1E001C01D92AA35B107E1F70E94D3
:1000900093030C9426040C9400006D9882E08A95DA
:1000A000F1F708956D9A82E08A95F1F70895759AAF
:1000B00082E08A95F1F70895759882E08A95F1F7C4
:1000C00008956C9882E08A95F1F708956C9A82E021
:1000D0008A95F1F70895749A82E08A95F1F7089568
:1000E000749882E08A95F1F708956C9A82E0982FCF
:1000F0009A95F1F77498982F9A95F1F76D9A982F31
:100100009A95F1F7759A982F9A95F1F7749A982F16
:100110009A95F1F77598982F9A95F1F774988A95B2
:10012000F1F708956C9A82E0982F9A95F1F77498F8
:10013000982F9A95F1F76D9A982F9A95F1F77598EF
:10014000982F9A95F1F7749A982F9A95F1F7759AD6
:10015000982F9A95F1F774988A95F1F708956D9A0A
:1001600092E09A95F1F720E042E087FF02C0759A8D
:1001700001C07598942F9A95F1F7749A32E0942FF4
:100180009A95F1F77498942F9A95F1F72F5F28308C
:1001900011F0880FEACF6D98832F8A95F1F7759A41
:1001A000832F8A95F1F7749A832F8A95F1F76599D1
:1001B000FECF749882E08A95F1F70895582F6D98D4
:1001C00082E0982F9A95F1F7759A8A95F1F790E069
:1001D00020E042E0220F749A842F8A95F1F7659906
:1001E0002160749832E0842F8A95F1F79F5F9830F0
:1001F00089F76D9A832F8A95F1F7552311F0759839
:1002000001C0759A832F8A95F1F7749A82E0982F2E
:100210009A95F1F774988A95F1F7822F08951F93B4
:10022000182F0E94750090E032E017FF02C0759A07
:1002300001C07598832F8A95F1F7749A22E0832F75
:100240008A95F1F77498832F8A95F1F79F5F98301C
:1002500011F0110FEACF6D98822F8A95F1F7759AF8
:10026000822F8A95F1F7749A822F8A95F1F78CB1D3
:100270007498922F9A95F1F790E025E096958795DE
:100280002A95E1F781701F910895FF920F931F93B4
:10029000182F062FF42E0E947500812F0E94AF00A8
:1002A000802F0E94AF008F2D0E94AF000E9492000D
:1002B0001F910F91FF9008950F931F93CF93DF939A
:1002C000182F062FEA010E947500812F0E94AF00AF
:1002D000802F0E94AF0000E010E0FE01E00FF11F50
:1002E00080810E94AF000F5F1F4F00311105A9F7F9
:1002F0000E949200DF91CF911F910F9108950F936B
:100300001F93082F162F0E947500802F0E94AF00A8
:10031000812F0E94AF000E947500802F81600E9493
:10032000AF0081E00E94DE00182F0E949200812F12
:100330001F910F910895DF92EF92FF920F931F93F9
:10034000CF93DF93082F162FEA01D22E0E9475005B
:10035000802F0E94AF00812F0E94AF000E94750085
:10036000802F81600E94AF007E011D2D06C081E0BC
:100370000E94DE00F70181937F011150C1F780E0F8
:100380000E94DE00DA94CD0DD11D88830E94920078
:10039000DF91CF911F910F91FF90EF90DF90089523
:1003A0001F93182F0E94750080E40E94AF00812FD8
:1003B0000E94AF000E9492001F9108951F930E9417
:1003C000750081E40E94AF0080E00E94DE00182FDB
:1003D0000E949200812F1F9108958EBD0DB407FEDB
:1003E000FDCF0895982F88EF8EBD0DB407FEFDCF89
:1003F000892F807F8EBD0DB407FEFDCF9295907F33
:100400009EBD0DB407FEFDCF88EB8A95F1F70895E8
:10041000982F8AEF8EBD0DB407FEFDCF892F807F08
:100420008EBD0DB407FEFDCF9295907F9EBD0DB49D
:1004300007FEFDCF88EB8A95F1F70895AC0188EFB0
:100440008EBD0DB407FEFDCF1EBC0DB407FEFDCF63
:1004500080E28EBD0DB407FEFDCF88EB8A95F1F7E3
:1004600020E030E06AEF98EBFA01E20FF31FE08141
:100470006EBD0DB407FEFDCF8E2F807F8EBD0DB4F7
:1004800007FEFDCFE295E07FEEBD0DB407FEFDCF88
:10049000892F8A95F1F72F5F3F4F2031310521F7E2
:1004A000DA01FA0160E23AEF98EB20A13EBD0DB40B
:1004B00007FEFDCF822F807F8EBD0DB407FEFDCFDE
:1004C0002295207F2EBD0DB407FEFDCF892F8A9582
:1004D000F1F76F5F3196603341F730E17AEF98EBD7
:1004E00050962C9150977EBD0DB407FEFDCF822F04
:1004F000807F8EBD0DB407FEFDCF2295207F2EBDDF
:100500000DB407FEFDCF892F8A95F1F73F5F119655
:10051000303231F7FA01F0963AEF28EB90813EBD88
:100520000DB407FEFDCF892F807F8EBD0DB407FE71
:10053000FDCF9295907F9EBD0DB407FEFDCF822F1B
:100540008A95F1F76F5F31966F3341F70895CF9336
:10055000DF93FB01EC0120E343C0433021F1443041
:1005600028F44130B1F14230C1F528C0443069F07F
:10057000453099F5CF0160E177E20E941204605D99
:100580006883CF0160E177E20AC0CF0168EE73E0D3
:100590000E941204605D6883CF0168EE73E00E94E0
:1005A0001204FC011BC0CF0164E670E00E9412043B
:1005B000605D6883CF0164E670E0F1CFCF016AE04F
:1005C00070E00E941204605D6883CF016AE070E011
:1005D000E6CFE05DE883E05301C0288341502196D7
:1005E000442309F0BACFDF91CF91089584B18F6091
:1005F00084B980E58CBD81E08DBD88EF8EBD0DB4E2
:1006000007FEFDCF1EBC0DB407FEFDCF80EC8EBDF6
:100610000DB407FEFDCF88EB8A95F1F788EF8EBD0C
:100620000DB407FEFDCF1EBC0DB407FEFDCF80E16B
:100630008EBD0DB407FEFDCF88EB8A95F1F786E6F7
:100640009EE00197F1F78AE191E060E270E040E41A
:1006500050E00E940B040895AF92BF92CF92DF92B8
:10066000EF92FF920F93DF93CF93CDB7DEB70D8557
:10067000AE84BF84E888F9880295007F8C85080FD6
:10068000DE01529641C0013408F043C08C3551F46C
:100690000894E11CF11C9501200F311DF7018081A8
:1006A000F9012DC0853241F50894E11CF11CF701D8
:1006B00080818436C1F40894E11CF11C32E0C32E21
:1006C000D12CCA0EDB1E6D917C91F7014081405305
:1006D000C501800F911D0E94A7020153F70180817F
:1006E000080FD6010DC0833659F4F501E00FF11D56
:1006F0008C918083129604C0F501E00FF11D808378
:100700000894E11CF11C0F5FF7018081882309F038
:10071000BACFCF91DF910F91FF90EF90DF90CF9004
:10072000BF90AF900895AF92BF92CF92DF92EF92B9
:10073000FF920F931F93CF93DF930E94F60200D096
:1007400000D000D0EDB7FEB73196ADB7BEB7119669
:100750001C9211820AE111E01383028380E091E090
:10076000958384830E942C03EDB7FEB73196ADB715
:10077000BEB711961C9281E08183138302838DE0C2
:1007800091E0958384830E942C038DB79EB70696D3
:100790000FB6F8949EBF0FBE8DBFC8010E941E0207
:1007A000FF2458E0A52EBB24B394E02E012F46E190
:1007B000C42E41E0D42EC8EBD0E08F2D0E94D00192
:1007C000ADB7BEB718970FB6F894BEBF0FBEADBF9A
:1007D000EDB7FEB731961196AC92B182E2820383F7
:1007E000D582C482F68217820E942C038DB79EB7F1
:1007F00008960FB6F8949EBF0FBE8DBF8E2D902F1A
:100800000E941E02F39480E197E2FE013197F1F716
:100810000197D9F7D2CFDC0101C06D934150504010
:10082000E0F70895AA1BBB1B51E107C0AA1FBB1F1D
:10083000A617B70710F0A61BB70B881F991F5A956C
:10084000A9F780959095BC01CD010895F894FFCF4C
:100850005043463835373420CAD4D1E900CAE4B30E
:0A086000F6D6B5A3BA0025643300F4
:00000001FF
