:100000000C9446000C9450000C9450000C9450003A
:100010000C9450000C9450000C9450000C94500020
:100020000C9450000C9450000C9450000C94500010
:100030000C9450000C9450000C9450000C94500000
:100040000C9450000C9450000C9450000C945000F0
:100050000C9450000C9450000C9450000C945000E0
:100060000C9450000C9450000C9450000C945000D0
:100070000C9450000C9450000C9450000C945000C0
:100080000C9450000C9450000C94500011241FBE8E
:10009000CFEFD0E1DEBFCDBF0E9463000C947700AC
:1000A0000C94000090E0C79887FF02C0C69A01C078
:1000B000C698C79A9F5F983011F0880FF4CF0895C3
:1000C000BE9ABF9A08951F93CF93DF93BE9ABF9AAB
:1000D00010E0C8EBD0E0812F0E9452001F5F88E83B
:1000E00093E1FE013197F1F70197D9F7F4CFF89436
:0200F000FFCF40
:00000001FF
