:040000000C942A0032
:14005400CFE5D4E0CDBFDEBFC051D0400AEA08830024E0E67D
:14006800F0E010E0E636F10711F00192FBCF0083E4E5F0E036
:14007C00A0E6B0E010E000E00BBFE435F10721F0C89531967A
:140090000D92F9CF0E945B02FFCF0E947C020E944A0328975A
:1400A400CC88AA2481E0888380E089838A838B833CC028808F
:1400B80039804A805B80088919892A893B895A924A923A9298
:1400CC002A920E9481020C831D832E833F834AE050E060E003
:1400E00070E00C811D812E813F817A936A935A934A930E94AC
:1400F400830280E690E0EA2DFF27E80FF91F0083288039806D
:140108004A805B804AE050E060E070E05A924A923A922A9204
:14011C008A019B010E94EB02088319832A833B83A3942C2CF8
:14013000332427FC30944A2C5524421453040CF4BACF28969A
:140144000E9453032496089584EA86BF26B627FEFDCF81B1A6
:14015800887F883011F0002701C001E0089584EA86BF26B6DE
:14016C0027FEFDCF81B1887F803111F0002701C001E008953D
:1401800003B984E886BF26B627FEFDCF81B1887F883111F03E
:14019400002701C001E00895AA92BA925801A0FE0EC00A2D6D
:1401A80006950695069506950695069506950695E3DF002386
:1401BC0011F4002707C00A2DDDDF002311F4002701C001E058
:1401D000B990A990089503B984E886BF26B627FEFDCF81B190
:1401E400887F803411F0002701C001E00895AA92A02EA0FE3D
:1401F8000EC00A2D0695069506950695069506950695069516
:14020C00B9DF002311F4002707C00A2DB3DF002311F4002718
:1402200001C001E0A990089503B984E886BF26B627FEFDCF18
:1402340081B1887F883211F0002701C001E0089584E886BFAB
:1402480026B627FEFDCF81B1887F883511F0002704C023B020
:14025C00F801208201E0089584EC86BF26B627FEFDCF81B1C1
:14027000887F803511F0002704C023B0F801208201E00895E6
:140284000E944303C22E7801AE805EDF002311F4002717C084
:14029800870180DF002311F4002711C00C2DC0DFC02E002362
:1402AC0011F400270AC00A2DB9DFA02E002311F4002703C099
:1402C00084E986BF01E00C9424030E944103E22EA801C884E5
:1402D400AA84BB8439DF002311F4002724C08A015BDF002376
:1402E80011F400271EC00E2D9BDFE02E002311F4002717C00F
:1402FC0034DFE02E002311F4002711C00C2D65DFC02E00231F
:1403100011F400270AC0850195DFA02E002311F4002703C009
:1403240084E986BF01E00C942B030E943F03E22EB801CA8469
:14033800AC84BD844E8506DF002311F4002738C08B0128DFAE
:14034C00002311F4002732C00E2D68DFE02E002311F400277D
:140360002BC001DFE02E002311F4002725C00C2D32DFC02E44
:14037400002311F400271EC0CC240BC00C2D11270A0D1B1DCD
:140388006DDFE02E002311F4002712C0C394842F8150C8162D
:14039C0088F30C2D11270A0D1B1D4EDFA02E002311F40027C8
:1403B00003C084E986BF01E00C9434034A9307C0442701C03C
:1403C40043954634E8F3015010402224332420163106A4F3B6
:1403D800499108954A935A9313C04427552702C04F5F5F4FF8
:1403EC0082EA9DECA0E0B0E01A0144245524281639064A062F
:140400005B0694F301501040222433242016310644F3599134
:14041400499108954A935A934427552702C04F5F5F4F401737
:140428005107D8F3599149910895AA92CA92C22EA02E21972E
:14043C00C8822A2D00EA10E01FDF002311F4002701C001E042
:140450002196C990A99008950E9445036901A02E2497DB8278
:14046400CA8281EA88832A2D00EA10E02CDF002311F4002737
:1404780001C001E024960C941F0385E58BBB04E010E0A8DF47
:14048C0022242BBA04E010E0A3DF8AEA8BBB04E010E09EDFD0
:1404A00022242BBA04E010E099CF83E080B981B18C7F81B9CE
:1404B40008952197CE015C018FEF8ABBF4DF40E265E5262F5C
:1404C800042FB3DF002379F001E010E083DF9501042FBEDF36
:1404DC00002321F0F50120802BBA05C08FE08BBB02C08FE0B2
:1404F0008BBBFFCF219608953A932A931A930A930895E894A3
:1405040001C0689430D0CC2409C0E89401C068942AD037FD06
:140518000E945C03B7FD52D0772488249924AA24BB2442D035
:14052C00C1F045D0B1F0E8E2000F111F221F331F771C881C81
:14054000991CAA1CBB1C88169906AA06BB0628F0881A990A4A
:14055400AA0ABB0A0395EA9559F726F4082D192D2A2D3B2D5F
:1405680013C07A928A929A92AA92BA92CA92EA938A939A93AD
:14057C00AA93BA938B859C85AD85BE85C32E0EF0CB260895BE
:14059000C7FC0E945C03B991A99199918991E991C990B990AF
:1405A400A99099908990799024960895E02FE12BE22BE32B32
:1405B8000895E82FE92BEA2BEB2B089580959095A095B095EB
:1405CC008F5F9F4FAF4FBF4F08950E9465037A920E947E035D
:1405E00059F177240E94840319F48C019D0124C00A921A9295
:1405F400089FB02CA12C289F902C812C189FA00C911C871CC0
:14060800099FA00C911C871C199F900C811C0A9F900C811C67
:14061C00389F800C299F800C1A9F800C0B9F800C1990099056
:140630000B2D1A2D292D382D79900C947303A990B990C99082
:14064400D9900895A990B990C990D990E990F9900895A99080
:14065800B990C990D990E990F990499159910895A990B9909E
:14066C00C990D990E990F990499159916991799108957A9344
:140680006A935A934A93FA92EA92DA92CA92BA92AA920895AA
:140694007A936A935A934A93DA92CA92BA92AA920895A99058
:1406A800B990C990D990499159916991799108950095109594
:1406BC00209530950F5F1F4F2F4F3F4F08958A929A92AA92A7
:1406D000BA92EA938A939A93AA93BA9389859A85AB85BC85DB
:1406E4000895B991A99199918991E991B990A990999089905F
:1406F80024960895EE27E02BE12BE22BE32B0895EE27E82B8B
:08070C00E92BEA2BEB2B089509
:00000001FF
