:100000000C942A000C943C000C943C000C943C0092
:100010000C943C000C943C000C943C000C943C0070
:100020000C943C000C943C000C943C000C943C0060
:100030000C943C000C943C000C9444000C943C0048
:100040000C943C000C943C000C943C000C943C0040
:100050000C943C0011241FBECFE5D4E0DEBFCDBF21
:1000600010E0A0E6B0E001C01D92A337B107E1F7B0
:100070000E948F000C94B4000C94000080E687B9B5
:100080008EEE86B9789408951F920F920FB60F9254
:1000900011248F93EF93FF93E0916000F0E085B11E
:1000A000ED59FF4F8083809160008F5F80936000E7
:1000B00080916000803111F41092600080916200A4
:1000C0008F5F8093620080916200803111F4109202
:1000D0006200FF91EF918F910F900FBE0F901F90D4
:1000E0001895809162008823E1F3E0916100F0E0CF
:1000F000ED59FF4FE081809161008F5F8093610037
:1001000080916100803111F410926100F894809127
:10011000620081508093620078948E2F08958FEF53
:1001200087BB80E687B98EEE86B9789480916200AD
:100130008823E1F3E0916100F0E0ED59FF4FE081A9
:10014000809161008F5F80936100809161008031B8
:1001500011F410926100F8948091620081508093B4
:0C01600062007894E8BBE2CFF894FFCF77
:00000001FF
